{
	"contracts/RomanToInteger.sol": {
		"RomanToInteger": {
			"abi": [
				{
					"inputs": [],
					"stateMutability": "nonpayable",
					"type": "constructor"
				},
				{
					"inputs": [
						{
							"internalType": "bytes1",
							"name": "c",
							"type": "bytes1"
						}
					],
					"name": "getValue",
					"outputs": [
						{
							"internalType": "uint256",
							"name": "",
							"type": "uint256"
						}
					],
					"stateMutability": "view",
					"type": "function"
				},
				{
					"inputs": [
						{
							"internalType": "string",
							"name": "roman",
							"type": "string"
						}
					],
					"name": "romanToInt",
					"outputs": [
						{
							"internalType": "uint256",
							"name": "",
							"type": "uint256"
						}
					],
					"stateMutability": "view",
					"type": "function"
				}
			],
			"devdoc": {
				"kind": "dev",
				"methods": {
					"getValue(bytes1)": {
						"details": "获取单个罗马数字字符的值",
						"params": {
							"c": "罗马数字字符"
						},
						"returns": {
							"_0": "对应的数值"
						}
					},
					"romanToInt(string)": {
						"details": "将罗马数字字符串转换为整数",
						"params": {
							"roman": "罗马数字字符串（只包含 I,V,X,L,C,D,M）"
						},
						"returns": {
							"_0": "对应的整数值"
						}
					}
				},
				"version": 1
			},
			"evm": {
				"assembly": "    /* \"contracts/RomanToInteger.sol\":68:1877  contract RomanToInteger {... */\n  mstore(0x40, 0x80)\n    /* \"contracts/RomanToInteger.sol\":203:491  constructor() {... */\n  callvalue\n  dup1\n  iszero\n  tag_1\n  jumpi\n  revert(0x00, 0x00)\ntag_1:\n  pop\n    /* \"contracts/RomanToInteger.sol\":287:288  1 */\n  0x01\n    /* \"contracts/RomanToInteger.sol\":268:279  romanValues */\n  0x00\n    /* \"contracts/RomanToInteger.sol\":268:284  romanValues['I'] */\n  0x00\n  and(not(0xffffffffffffffffffffffffffffffffffffffffffffffffffffffffffffff), 0x4900000000000000000000000000000000000000000000000000000000000000)\n  dup2\n  mstore\n  0x20\n  add\n  swap1\n  dup2\n  mstore\n  0x20\n  add\n  0x00\n  keccak256\n    /* \"contracts/RomanToInteger.sol\":268:288  romanValues['I'] = 1 */\n  dup2\n  swap1\n  sstore\n  pop\n    /* \"contracts/RomanToInteger.sol\":318:319  5 */\n  0x05\n    /* \"contracts/RomanToInteger.sol\":299:310  romanValues */\n  0x00\n    /* \"contracts/RomanToInteger.sol\":299:315  romanValues['V'] */\n  0x00\n  and(not(0xffffffffffffffffffffffffffffffffffffffffffffffffffffffffffffff), 0x5600000000000000000000000000000000000000000000000000000000000000)\n  dup2\n  mstore\n  0x20\n  add\n  swap1\n  dup2\n  mstore\n  0x20\n  add\n  0x00\n  keccak256\n    /* \"contracts/RomanToInteger.sol\":299:319  romanValues['V'] = 5 */\n  dup2\n  swap1\n  sstore\n  pop\n    /* \"contracts/RomanToInteger.sol\":349:351  10 */\n  0x0a\n    /* \"contracts/RomanToInteger.sol\":330:341  romanValues */\n  0x00\n    /* \"contracts/RomanToInteger.sol\":330:346  romanValues['X'] */\n  0x00\n  and(not(0xffffffffffffffffffffffffffffffffffffffffffffffffffffffffffffff), 0x5800000000000000000000000000000000000000000000000000000000000000)\n  dup2\n  mstore\n  0x20\n  add\n  swap1\n  dup2\n  mstore\n  0x20\n  add\n  0x00\n  keccak256\n    /* \"contracts/RomanToInteger.sol\":330:351  romanValues['X'] = 10 */\n  dup2\n  swap1\n  sstore\n  pop\n    /* \"contracts/RomanToInteger.sol\":381:383  50 */\n  0x32\n    /* \"contracts/RomanToInteger.sol\":362:373  romanValues */\n  0x00\n    /* \"contracts/RomanToInteger.sol\":362:378  romanValues['L'] */\n  0x00\n  and(not(0xffffffffffffffffffffffffffffffffffffffffffffffffffffffffffffff), 0x4c00000000000000000000000000000000000000000000000000000000000000)\n  dup2\n  mstore\n  0x20\n  add\n  swap1\n  dup2\n  mstore\n  0x20\n  add\n  0x00\n  keccak256\n    /* \"contracts/RomanToInteger.sol\":362:383  romanValues['L'] = 50 */\n  dup2\n  swap1\n  sstore\n  pop\n    /* \"contracts/RomanToInteger.sol\":413:416  100 */\n  0x64\n    /* \"contracts/RomanToInteger.sol\":394:405  romanValues */\n  0x00\n    /* \"contracts/RomanToInteger.sol\":394:410  romanValues['C'] */\n  0x00\n  and(not(0xffffffffffffffffffffffffffffffffffffffffffffffffffffffffffffff), 0x4300000000000000000000000000000000000000000000000000000000000000)\n  dup2\n  mstore\n  0x20\n  add\n  swap1\n  dup2\n  mstore\n  0x20\n  add\n  0x00\n  keccak256\n    /* \"contracts/RomanToInteger.sol\":394:416  romanValues['C'] = 100 */\n  dup2\n  swap1\n  sstore\n  pop\n    /* \"contracts/RomanToInteger.sol\":446:449  500 */\n  0x01f4\n    /* \"contracts/RomanToInteger.sol\":427:438  romanValues */\n  0x00\n    /* \"contracts/RomanToInteger.sol\":427:443  romanValues['D'] */\n  0x00\n  and(not(0xffffffffffffffffffffffffffffffffffffffffffffffffffffffffffffff), 0x4400000000000000000000000000000000000000000000000000000000000000)\n  dup2\n  mstore\n  0x20\n  add\n  swap1\n  dup2\n  mstore\n  0x20\n  add\n  0x00\n  keccak256\n    /* \"contracts/RomanToInteger.sol\":427:449  romanValues['D'] = 500 */\n  dup2\n  swap1\n  sstore\n  pop\n    /* \"contracts/RomanToInteger.sol\":479:483  1000 */\n  0x03e8\n    /* \"contracts/RomanToInteger.sol\":460:471  romanValues */\n  0x00\n    /* \"contracts/RomanToInteger.sol\":460:476  romanValues['M'] */\n  0x00\n  and(not(0xffffffffffffffffffffffffffffffffffffffffffffffffffffffffffffff), 0x4d00000000000000000000000000000000000000000000000000000000000000)\n  dup2\n  mstore\n  0x20\n  add\n  swap1\n  dup2\n  mstore\n  0x20\n  add\n  0x00\n  keccak256\n    /* \"contracts/RomanToInteger.sol\":460:483  romanValues['M'] = 1000 */\n  dup2\n  swap1\n  sstore\n  pop\n    /* \"contracts/RomanToInteger.sol\":68:1877  contract RomanToInteger {... */\n  dataSize(sub_0)\n  dup1\n  dataOffset(sub_0)\n  0x00\n  codecopy\n  0x00\n  return\nstop\n\nsub_0: assembly {\n        /* \"contracts/RomanToInteger.sol\":68:1877  contract RomanToInteger {... */\n      mstore(0x40, 0x80)\n      callvalue\n      dup1\n      iszero\n      tag_1\n      jumpi\n      revert(0x00, 0x00)\n    tag_1:\n      pop\n      jumpi(tag_2, lt(calldatasize, 0x04))\n      shr(0xe0, calldataload(0x00))\n      dup1\n      0x2f0e44d8\n      eq\n      tag_3\n      jumpi\n      dup1\n      0xcb159dfe\n      eq\n      tag_4\n      jumpi\n    tag_2:\n      revert(0x00, 0x00)\n        /* \"contracts/RomanToInteger.sol\":1679:1874  function getValue(bytes1 c) public view returns (uint256) {... */\n    tag_3:\n      tag_5\n      0x04\n      dup1\n      calldatasize\n      sub\n      dup2\n      add\n      swap1\n      tag_6\n      swap2\n      swap1\n      tag_7\n      jump\t// in\n    tag_6:\n      tag_8\n      jump\t// in\n    tag_5:\n      mload(0x40)\n      tag_9\n      swap2\n      swap1\n      tag_10\n      jump\t// in\n    tag_9:\n      mload(0x40)\n      dup1\n      swap2\n      sub\n      swap1\n      return\n        /* \"contracts/RomanToInteger.sol\":681:1531  function romanToInt(string memory roman) public view returns (uint256) {... */\n    tag_4:\n      tag_11\n      0x04\n      dup1\n      calldatasize\n      sub\n      dup2\n      add\n      swap1\n      tag_12\n      swap2\n      swap1\n      tag_13\n      jump\t// in\n    tag_12:\n      tag_14\n      jump\t// in\n    tag_11:\n      mload(0x40)\n      tag_15\n      swap2\n      swap1\n      tag_10\n      jump\t// in\n    tag_15:\n      mload(0x40)\n      dup1\n      swap2\n      sub\n      swap1\n      return\n        /* \"contracts/RomanToInteger.sol\":1679:1874  function getValue(bytes1 c) public view returns (uint256) {... */\n    tag_8:\n        /* \"contracts/RomanToInteger.sol\":1728:1735  uint256 */\n      0x00\n        /* \"contracts/RomanToInteger.sol\":1748:1761  uint256 value */\n      0x00\n        /* \"contracts/RomanToInteger.sol\":1764:1775  romanValues */\n      0x00\n        /* \"contracts/RomanToInteger.sol\":1764:1778  romanValues[c] */\n      0x00\n        /* \"contracts/RomanToInteger.sol\":1776:1777  c */\n      dup5\n        /* \"contracts/RomanToInteger.sol\":1764:1778  romanValues[c] */\n      not(0xffffffffffffffffffffffffffffffffffffffffffffffffffffffffffffff)\n      and\n      not(0xffffffffffffffffffffffffffffffffffffffffffffffffffffffffffffff)\n      and\n      dup2\n      mstore\n      0x20\n      add\n      swap1\n      dup2\n      mstore\n      0x20\n      add\n      0x00\n      keccak256\n      sload\n        /* \"contracts/RomanToInteger.sol\":1748:1778  uint256 value = romanValues[c] */\n      swap1\n      pop\n        /* \"contracts/RomanToInteger.sol\":1806:1807  0 */\n      0x00\n        /* \"contracts/RomanToInteger.sol\":1797:1802  value */\n      dup2\n        /* \"contracts/RomanToInteger.sol\":1797:1807  value != 0 */\n      sub\n        /* \"contracts/RomanToInteger.sol\":1789:1843  require(value != 0, \"Invalid Roman numeral character\") */\n      tag_17\n      jumpi\n      mload(0x40)\n      0x08c379a000000000000000000000000000000000000000000000000000000000\n      dup2\n      mstore\n      0x04\n      add\n      tag_18\n      swap1\n      tag_19\n      jump\t// in\n    tag_18:\n      mload(0x40)\n      dup1\n      swap2\n      sub\n      swap1\n      revert\n    tag_17:\n        /* \"contracts/RomanToInteger.sol\":1861:1866  value */\n      dup1\n        /* \"contracts/RomanToInteger.sol\":1854:1866  return value */\n      swap2\n      pop\n      pop\n        /* \"contracts/RomanToInteger.sol\":1679:1874  function getValue(bytes1 c) public view returns (uint256) {... */\n      swap2\n      swap1\n      pop\n      jump\t// out\n        /* \"contracts/RomanToInteger.sol\":681:1531  function romanToInt(string memory roman) public view returns (uint256) {... */\n    tag_14:\n        /* \"contracts/RomanToInteger.sol\":743:750  uint256 */\n      0x00\n        /* \"contracts/RomanToInteger.sol\":763:786  bytes memory romanBytes */\n      0x00\n        /* \"contracts/RomanToInteger.sol\":795:800  roman */\n      dup3\n        /* \"contracts/RomanToInteger.sol\":763:801  bytes memory romanBytes = bytes(roman) */\n      swap1\n      pop\n        /* \"contracts/RomanToInteger.sol\":812:826  uint256 length */\n      0x00\n        /* \"contracts/RomanToInteger.sol\":829:839  romanBytes */\n      dup2\n        /* \"contracts/RomanToInteger.sol\":829:846  romanBytes.length */\n      mload\n        /* \"contracts/RomanToInteger.sol\":812:846  uint256 length = romanBytes.length */\n      swap1\n      pop\n        /* \"contracts/RomanToInteger.sol\":881:882  0 */\n      0x00\n        /* \"contracts/RomanToInteger.sol\":871:877  length */\n      dup2\n        /* \"contracts/RomanToInteger.sol\":871:882  length == 0 */\n      sub\n        /* \"contracts/RomanToInteger.sol\":867:919  if (length == 0) {... */\n      tag_21\n      jumpi\n        /* \"contracts/RomanToInteger.sol\":906:907  0 */\n      0x00\n        /* \"contracts/RomanToInteger.sol\":899:907  return 0 */\n      swap3\n      pop\n      pop\n      pop\n      jump(tag_20)\n        /* \"contracts/RomanToInteger.sol\":867:919  if (length == 0) {... */\n    tag_21:\n        /* \"contracts/RomanToInteger.sol\":939:953  uint256 result */\n      0x00\n        /* \"contracts/RomanToInteger.sol\":956:957  0 */\n      0x00\n        /* \"contracts/RomanToInteger.sol\":939:957  uint256 result = 0 */\n      swap1\n      pop\n        /* \"contracts/RomanToInteger.sol\":983:992  uint256 i */\n      0x00\n        /* \"contracts/RomanToInteger.sol\":995:996  0 */\n      0x00\n        /* \"contracts/RomanToInteger.sol\":983:996  uint256 i = 0 */\n      swap1\n      pop\n        /* \"contracts/RomanToInteger.sol\":978:1490  for (uint256 i = 0; i < length; i++) {... */\n    tag_22:\n        /* \"contracts/RomanToInteger.sol\":1002:1008  length */\n      dup3\n        /* \"contracts/RomanToInteger.sol\":998:999  i */\n      dup2\n        /* \"contracts/RomanToInteger.sol\":998:1008  i < length */\n      lt\n        /* \"contracts/RomanToInteger.sol\":978:1490  for (uint256 i = 0; i < length; i++) {... */\n      iszero\n      tag_23\n      jumpi\n        /* \"contracts/RomanToInteger.sol\":1030:1045  uint256 current */\n      0x00\n        /* \"contracts/RomanToInteger.sol\":1048:1071  getValue(romanBytes[i]) */\n      tag_25\n        /* \"contracts/RomanToInteger.sol\":1057:1067  romanBytes */\n      dup6\n        /* \"contracts/RomanToInteger.sol\":1068:1069  i */\n      dup4\n        /* \"contracts/RomanToInteger.sol\":1057:1070  romanBytes[i] */\n      dup2\n      mload\n      dup2\n      lt\n      tag_26\n      jumpi\n      tag_27\n      tag_28\n      jump\t// in\n    tag_27:\n    tag_26:\n      0x20\n      add\n      add\n      mload\n      0xf8\n      shr\n      0xf8\n      shl\n        /* \"contracts/RomanToInteger.sol\":1048:1056  getValue */\n      tag_8\n        /* \"contracts/RomanToInteger.sol\":1048:1071  getValue(romanBytes[i]) */\n      jump\t// in\n    tag_25:\n        /* \"contracts/RomanToInteger.sol\":1030:1071  uint256 current = getValue(romanBytes[i]) */\n      swap1\n      pop\n        /* \"contracts/RomanToInteger.sol\":1224:1225  1 */\n      0x01\n        /* \"contracts/RomanToInteger.sol\":1215:1221  length */\n      dup5\n        /* \"contracts/RomanToInteger.sol\":1215:1225  length - 1 */\n      tag_29\n      swap2\n      swap1\n      tag_30\n      jump\t// in\n    tag_29:\n        /* \"contracts/RomanToInteger.sol\":1211:1212  i */\n      dup3\n        /* \"contracts/RomanToInteger.sol\":1211:1225  i < length - 1 */\n      lt\n        /* \"contracts/RomanToInteger.sol\":1207:1433  if (i < length - 1) {... */\n      iszero\n      tag_31\n      jumpi\n        /* \"contracts/RomanToInteger.sol\":1246:1258  uint256 next */\n      0x00\n        /* \"contracts/RomanToInteger.sol\":1261:1288  getValue(romanBytes[i + 1]) */\n      tag_32\n        /* \"contracts/RomanToInteger.sol\":1270:1280  romanBytes */\n      dup7\n        /* \"contracts/RomanToInteger.sol\":1285:1286  1 */\n      0x01\n        /* \"contracts/RomanToInteger.sol\":1281:1282  i */\n      dup6\n        /* \"contracts/RomanToInteger.sol\":1281:1286  i + 1 */\n      tag_33\n      swap2\n      swap1\n      tag_34\n      jump\t// in\n    tag_33:\n        /* \"contracts/RomanToInteger.sol\":1270:1287  romanBytes[i + 1] */\n      dup2\n      mload\n      dup2\n      lt\n      tag_35\n      jumpi\n      tag_36\n      tag_28\n      jump\t// in\n    tag_36:\n    tag_35:\n      0x20\n      add\n      add\n      mload\n      0xf8\n      shr\n      0xf8\n      shl\n        /* \"contracts/RomanToInteger.sol\":1261:1269  getValue */\n      tag_8\n        /* \"contracts/RomanToInteger.sol\":1261:1288  getValue(romanBytes[i + 1]) */\n      jump\t// in\n    tag_32:\n        /* \"contracts/RomanToInteger.sol\":1246:1288  uint256 next = getValue(romanBytes[i + 1]) */\n      swap1\n      pop\n        /* \"contracts/RomanToInteger.sol\":1321:1325  next */\n      dup1\n        /* \"contracts/RomanToInteger.sol\":1311:1318  current */\n      dup3\n        /* \"contracts/RomanToInteger.sol\":1311:1325  current < next */\n      lt\n        /* \"contracts/RomanToInteger.sol\":1307:1418  if (current < next) {... */\n      iszero\n      tag_37\n      jumpi\n        /* \"contracts/RomanToInteger.sol\":1360:1367  current */\n      dup2\n        /* \"contracts/RomanToInteger.sol\":1350:1367  result -= current */\n      dup5\n      tag_38\n      swap2\n      swap1\n      tag_30\n      jump\t// in\n    tag_38:\n      swap4\n      pop\n        /* \"contracts/RomanToInteger.sol\":1390:1398  continue */\n      pop\n      pop\n      jump(tag_24)\n        /* \"contracts/RomanToInteger.sol\":1307:1418  if (current < next) {... */\n    tag_37:\n        /* \"contracts/RomanToInteger.sol\":1227:1433  {... */\n      pop\n        /* \"contracts/RomanToInteger.sol\":1207:1433  if (i < length - 1) {... */\n    tag_31:\n        /* \"contracts/RomanToInteger.sol\":1471:1478  current */\n      dup1\n        /* \"contracts/RomanToInteger.sol\":1461:1478  result += current */\n      dup4\n      tag_39\n      swap2\n      swap1\n      tag_34\n      jump\t// in\n    tag_39:\n      swap3\n      pop\n        /* \"contracts/RomanToInteger.sol\":1015:1490  {... */\n      pop\n        /* \"contracts/RomanToInteger.sol\":978:1490  for (uint256 i = 0; i < length; i++) {... */\n    tag_24:\n        /* \"contracts/RomanToInteger.sol\":1010:1013  i++ */\n      dup1\n      dup1\n      0x01\n      add\n      swap2\n      pop\n      pop\n        /* \"contracts/RomanToInteger.sol\":978:1490  for (uint256 i = 0; i < length; i++) {... */\n      jump(tag_22)\n    tag_23:\n      pop\n        /* \"contracts/RomanToInteger.sol\":1517:1523  result */\n      dup1\n        /* \"contracts/RomanToInteger.sol\":1510:1523  return result */\n      swap4\n      pop\n      pop\n      pop\n      pop\n        /* \"contracts/RomanToInteger.sol\":681:1531  function romanToInt(string memory roman) public view returns (uint256) {... */\n    tag_20:\n      swap2\n      swap1\n      pop\n      jump\t// out\n        /* \"#utility.yul\":7:82   */\n    tag_40:\n        /* \"#utility.yul\":40:46   */\n      0x00\n        /* \"#utility.yul\":73:75   */\n      0x40\n        /* \"#utility.yul\":67:76   */\n      mload\n        /* \"#utility.yul\":57:76   */\n      swap1\n      pop\n        /* \"#utility.yul\":7:82   */\n      swap1\n      jump\t// out\n        /* \"#utility.yul\":88:205   */\n    tag_41:\n        /* \"#utility.yul\":197:198   */\n      0x00\n        /* \"#utility.yul\":194:195   */\n      0x00\n        /* \"#utility.yul\":187:199   */\n      revert\n        /* \"#utility.yul\":211:328   */\n    tag_42:\n        /* \"#utility.yul\":320:321   */\n      0x00\n        /* \"#utility.yul\":317:318   */\n      0x00\n        /* \"#utility.yul\":310:322   */\n      revert\n        /* \"#utility.yul\":334:483   */\n    tag_43:\n        /* \"#utility.yul\":370:377   */\n      0x00\n        /* \"#utility.yul\":410:476   */\n      0xff00000000000000000000000000000000000000000000000000000000000000\n        /* \"#utility.yul\":403:408   */\n      dup3\n        /* \"#utility.yul\":399:477   */\n      and\n        /* \"#utility.yul\":388:477   */\n      swap1\n      pop\n        /* \"#utility.yul\":334:483   */\n      swap2\n      swap1\n      pop\n      jump\t// out\n        /* \"#utility.yul\":489:609   */\n    tag_44:\n        /* \"#utility.yul\":561:584   */\n      tag_68\n        /* \"#utility.yul\":578:583   */\n      dup2\n        /* \"#utility.yul\":561:584   */\n      tag_43\n      jump\t// in\n    tag_68:\n        /* \"#utility.yul\":554:559   */\n      dup2\n        /* \"#utility.yul\":551:585   */\n      eq\n        /* \"#utility.yul\":541:603   */\n      tag_69\n      jumpi\n        /* \"#utility.yul\":599:600   */\n      0x00\n        /* \"#utility.yul\":596:597   */\n      0x00\n        /* \"#utility.yul\":589:601   */\n      revert\n        /* \"#utility.yul\":541:603   */\n    tag_69:\n        /* \"#utility.yul\":489:609   */\n      pop\n      jump\t// out\n        /* \"#utility.yul\":615:752   */\n    tag_45:\n        /* \"#utility.yul\":660:665   */\n      0x00\n        /* \"#utility.yul\":698:704   */\n      dup2\n        /* \"#utility.yul\":685:705   */\n      calldataload\n        /* \"#utility.yul\":676:705   */\n      swap1\n      pop\n        /* \"#utility.yul\":714:746   */\n      tag_71\n        /* \"#utility.yul\":740:745   */\n      dup2\n        /* \"#utility.yul\":714:746   */\n      tag_44\n      jump\t// in\n    tag_71:\n        /* \"#utility.yul\":615:752   */\n      swap3\n      swap2\n      pop\n      pop\n      jump\t// out\n        /* \"#utility.yul\":758:1085   */\n    tag_7:\n        /* \"#utility.yul\":816:822   */\n      0x00\n        /* \"#utility.yul\":865:867   */\n      0x20\n        /* \"#utility.yul\":853:862   */\n      dup3\n        /* \"#utility.yul\":844:851   */\n      dup5\n        /* \"#utility.yul\":840:863   */\n      sub\n        /* \"#utility.yul\":836:868   */\n      slt\n        /* \"#utility.yul\":833:952   */\n      iszero\n      tag_73\n      jumpi\n        /* \"#utility.yul\":871:950   */\n      tag_74\n      tag_41\n      jump\t// in\n    tag_74:\n        /* \"#utility.yul\":833:952   */\n    tag_73:\n        /* \"#utility.yul\":991:992   */\n      0x00\n        /* \"#utility.yul\":1016:1068   */\n      tag_75\n        /* \"#utility.yul\":1060:1067   */\n      dup5\n        /* \"#utility.yul\":1051:1057   */\n      dup3\n        /* \"#utility.yul\":1040:1049   */\n      dup6\n        /* \"#utility.yul\":1036:1058   */\n      add\n        /* \"#utility.yul\":1016:1068   */\n      tag_45\n      jump\t// in\n    tag_75:\n        /* \"#utility.yul\":1006:1068   */\n      swap2\n      pop\n        /* \"#utility.yul\":962:1078   */\n      pop\n        /* \"#utility.yul\":758:1085   */\n      swap3\n      swap2\n      pop\n      pop\n      jump\t// out\n        /* \"#utility.yul\":1091:1168   */\n    tag_46:\n        /* \"#utility.yul\":1128:1135   */\n      0x00\n        /* \"#utility.yul\":1157:1162   */\n      dup2\n        /* \"#utility.yul\":1146:1162   */\n      swap1\n      pop\n        /* \"#utility.yul\":1091:1168   */\n      swap2\n      swap1\n      pop\n      jump\t// out\n        /* \"#utility.yul\":1174:1292   */\n    tag_47:\n        /* \"#utility.yul\":1261:1285   */\n      tag_78\n        /* \"#utility.yul\":1279:1284   */\n      dup2\n        /* \"#utility.yul\":1261:1285   */\n      tag_46\n      jump\t// in\n    tag_78:\n        /* \"#utility.yul\":1256:1259   */\n      dup3\n        /* \"#utility.yul\":1249:1286   */\n      mstore\n        /* \"#utility.yul\":1174:1292   */\n      pop\n      pop\n      jump\t// out\n        /* \"#utility.yul\":1298:1520   */\n    tag_10:\n        /* \"#utility.yul\":1391:1395   */\n      0x00\n        /* \"#utility.yul\":1429:1431   */\n      0x20\n        /* \"#utility.yul\":1418:1427   */\n      dup3\n        /* \"#utility.yul\":1414:1432   */\n      add\n        /* \"#utility.yul\":1406:1432   */\n      swap1\n      pop\n        /* \"#utility.yul\":1442:1513   */\n      tag_80\n        /* \"#utility.yul\":1510:1511   */\n      0x00\n        /* \"#utility.yul\":1499:1508   */\n      dup4\n        /* \"#utility.yul\":1495:1512   */\n      add\n        /* \"#utility.yul\":1486:1492   */\n      dup5\n        /* \"#utility.yul\":1442:1513   */\n      tag_47\n      jump\t// in\n    tag_80:\n        /* \"#utility.yul\":1298:1520   */\n      swap3\n      swap2\n      pop\n      pop\n      jump\t// out\n        /* \"#utility.yul\":1526:1643   */\n    tag_48:\n        /* \"#utility.yul\":1635:1636   */\n      0x00\n        /* \"#utility.yul\":1632:1633   */\n      0x00\n        /* \"#utility.yul\":1625:1637   */\n      revert\n        /* \"#utility.yul\":1649:1766   */\n    tag_49:\n        /* \"#utility.yul\":1758:1759   */\n      0x00\n        /* \"#utility.yul\":1755:1756   */\n      0x00\n        /* \"#utility.yul\":1748:1760   */\n      revert\n        /* \"#utility.yul\":1772:1874   */\n    tag_50:\n        /* \"#utility.yul\":1813:1819   */\n      0x00\n        /* \"#utility.yul\":1864:1866   */\n      0x1f\n        /* \"#utility.yul\":1860:1867   */\n      not\n        /* \"#utility.yul\":1855:1857   */\n      0x1f\n        /* \"#utility.yul\":1848:1853   */\n      dup4\n        /* \"#utility.yul\":1844:1858   */\n      add\n        /* \"#utility.yul\":1840:1868   */\n      and\n        /* \"#utility.yul\":1830:1868   */\n      swap1\n      pop\n        /* \"#utility.yul\":1772:1874   */\n      swap2\n      swap1\n      pop\n      jump\t// out\n        /* \"#utility.yul\":1880:2060   */\n    tag_51:\n        /* \"#utility.yul\":1928:2005   */\n      0x4e487b7100000000000000000000000000000000000000000000000000000000\n        /* \"#utility.yul\":1925:1926   */\n      0x00\n        /* \"#utility.yul\":1918:2006   */\n      mstore\n        /* \"#utility.yul\":2025:2029   */\n      0x41\n        /* \"#utility.yul\":2022:2023   */\n      0x04\n        /* \"#utility.yul\":2015:2030   */\n      mstore\n        /* \"#utility.yul\":2049:2053   */\n      0x24\n        /* \"#utility.yul\":2046:2047   */\n      0x00\n        /* \"#utility.yul\":2039:2054   */\n      revert\n        /* \"#utility.yul\":2066:2347   */\n    tag_52:\n        /* \"#utility.yul\":2149:2176   */\n      tag_86\n        /* \"#utility.yul\":2171:2175   */\n      dup3\n        /* \"#utility.yul\":2149:2176   */\n      tag_50\n      jump\t// in\n    tag_86:\n        /* \"#utility.yul\":2141:2147   */\n      dup2\n        /* \"#utility.yul\":2137:2177   */\n      add\n        /* \"#utility.yul\":2279:2285   */\n      dup2\n        /* \"#utility.yul\":2267:2277   */\n      dup2\n        /* \"#utility.yul\":2264:2286   */\n      lt\n        /* \"#utility.yul\":2243:2261   */\n      0xffffffffffffffff\n        /* \"#utility.yul\":2231:2241   */\n      dup3\n        /* \"#utility.yul\":2228:2262   */\n      gt\n        /* \"#utility.yul\":2225:2287   */\n      or\n        /* \"#utility.yul\":2222:2310   */\n      iszero\n      tag_87\n      jumpi\n        /* \"#utility.yul\":2290:2308   */\n      tag_88\n      tag_51\n      jump\t// in\n    tag_88:\n        /* \"#utility.yul\":2222:2310   */\n    tag_87:\n        /* \"#utility.yul\":2330:2340   */\n      dup1\n        /* \"#utility.yul\":2326:2328   */\n      0x40\n        /* \"#utility.yul\":2319:2341   */\n      mstore\n        /* \"#utility.yul\":2109:2347   */\n      pop\n        /* \"#utility.yul\":2066:2347   */\n      pop\n      pop\n      jump\t// out\n        /* \"#utility.yul\":2353:2482   */\n    tag_53:\n        /* \"#utility.yul\":2387:2393   */\n      0x00\n        /* \"#utility.yul\":2414:2434   */\n      tag_90\n      tag_40\n      jump\t// in\n    tag_90:\n        /* \"#utility.yul\":2404:2434   */\n      swap1\n      pop\n        /* \"#utility.yul\":2443:2476   */\n      tag_91\n        /* \"#utility.yul\":2471:2475   */\n      dup3\n        /* \"#utility.yul\":2463:2469   */\n      dup3\n        /* \"#utility.yul\":2443:2476   */\n      tag_52\n      jump\t// in\n    tag_91:\n        /* \"#utility.yul\":2353:2482   */\n      swap2\n      swap1\n      pop\n      jump\t// out\n        /* \"#utility.yul\":2488:2796   */\n    tag_54:\n        /* \"#utility.yul\":2550:2554   */\n      0x00\n        /* \"#utility.yul\":2640:2658   */\n      0xffffffffffffffff\n        /* \"#utility.yul\":2632:2638   */\n      dup3\n        /* \"#utility.yul\":2629:2659   */\n      gt\n        /* \"#utility.yul\":2626:2682   */\n      iszero\n      tag_93\n      jumpi\n        /* \"#utility.yul\":2662:2680   */\n      tag_94\n      tag_51\n      jump\t// in\n    tag_94:\n        /* \"#utility.yul\":2626:2682   */\n    tag_93:\n        /* \"#utility.yul\":2700:2729   */\n      tag_95\n        /* \"#utility.yul\":2722:2728   */\n      dup3\n        /* \"#utility.yul\":2700:2729   */\n      tag_50\n      jump\t// in\n    tag_95:\n        /* \"#utility.yul\":2692:2729   */\n      swap1\n      pop\n        /* \"#utility.yul\":2784:2788   */\n      0x20\n        /* \"#utility.yul\":2778:2782   */\n      dup2\n        /* \"#utility.yul\":2774:2789   */\n      add\n        /* \"#utility.yul\":2766:2789   */\n      swap1\n      pop\n        /* \"#utility.yul\":2488:2796   */\n      swap2\n      swap1\n      pop\n      jump\t// out\n        /* \"#utility.yul\":2802:2950   */\n    tag_55:\n        /* \"#utility.yul\":2900:2906   */\n      dup3\n        /* \"#utility.yul\":2895:2898   */\n      dup2\n        /* \"#utility.yul\":2890:2893   */\n      dup4\n        /* \"#utility.yul\":2877:2907   */\n      calldatacopy\n        /* \"#utility.yul\":2941:2942   */\n      0x00\n        /* \"#utility.yul\":2932:2938   */\n      dup4\n        /* \"#utility.yul\":2927:2930   */\n      dup4\n        /* \"#utility.yul\":2923:2939   */\n      add\n        /* \"#utility.yul\":2916:2943   */\n      mstore\n        /* \"#utility.yul\":2802:2950   */\n      pop\n      pop\n      pop\n      jump\t// out\n        /* \"#utility.yul\":2956:3381   */\n    tag_56:\n        /* \"#utility.yul\":3034:3039   */\n      0x00\n        /* \"#utility.yul\":3059:3125   */\n      tag_98\n        /* \"#utility.yul\":3075:3124   */\n      tag_99\n        /* \"#utility.yul\":3117:3123   */\n      dup5\n        /* \"#utility.yul\":3075:3124   */\n      tag_54\n      jump\t// in\n    tag_99:\n        /* \"#utility.yul\":3059:3125   */\n      tag_53\n      jump\t// in\n    tag_98:\n        /* \"#utility.yul\":3050:3125   */\n      swap1\n      pop\n        /* \"#utility.yul\":3148:3154   */\n      dup3\n        /* \"#utility.yul\":3141:3146   */\n      dup2\n        /* \"#utility.yul\":3134:3155   */\n      mstore\n        /* \"#utility.yul\":3186:3190   */\n      0x20\n        /* \"#utility.yul\":3179:3184   */\n      dup2\n        /* \"#utility.yul\":3175:3191   */\n      add\n        /* \"#utility.yul\":3224:3227   */\n      dup5\n        /* \"#utility.yul\":3215:3221   */\n      dup5\n        /* \"#utility.yul\":3210:3213   */\n      dup5\n        /* \"#utility.yul\":3206:3222   */\n      add\n        /* \"#utility.yul\":3203:3228   */\n      gt\n        /* \"#utility.yul\":3200:3312   */\n      iszero\n      tag_100\n      jumpi\n        /* \"#utility.yul\":3231:3310   */\n      tag_101\n      tag_49\n      jump\t// in\n    tag_101:\n        /* \"#utility.yul\":3200:3312   */\n    tag_100:\n        /* \"#utility.yul\":3321:3375   */\n      tag_102\n        /* \"#utility.yul\":3368:3374   */\n      dup5\n        /* \"#utility.yul\":3363:3366   */\n      dup3\n        /* \"#utility.yul\":3358:3361   */\n      dup6\n        /* \"#utility.yul\":3321:3375   */\n      tag_55\n      jump\t// in\n    tag_102:\n        /* \"#utility.yul\":3040:3381   */\n      pop\n        /* \"#utility.yul\":2956:3381   */\n      swap4\n      swap3\n      pop\n      pop\n      pop\n      jump\t// out\n        /* \"#utility.yul\":3401:3741   */\n    tag_57:\n        /* \"#utility.yul\":3457:3462   */\n      0x00\n        /* \"#utility.yul\":3506:3509   */\n      dup3\n        /* \"#utility.yul\":3499:3503   */\n      0x1f\n        /* \"#utility.yul\":3491:3497   */\n      dup4\n        /* \"#utility.yul\":3487:3504   */\n      add\n        /* \"#utility.yul\":3483:3510   */\n      slt\n        /* \"#utility.yul\":3473:3595   */\n      tag_104\n      jumpi\n        /* \"#utility.yul\":3514:3593   */\n      tag_105\n      tag_48\n      jump\t// in\n    tag_105:\n        /* \"#utility.yul\":3473:3595   */\n    tag_104:\n        /* \"#utility.yul\":3631:3637   */\n      dup2\n        /* \"#utility.yul\":3618:3638   */\n      calldataload\n        /* \"#utility.yul\":3656:3735   */\n      tag_106\n        /* \"#utility.yul\":3731:3734   */\n      dup5\n        /* \"#utility.yul\":3723:3729   */\n      dup3\n        /* \"#utility.yul\":3716:3720   */\n      0x20\n        /* \"#utility.yul\":3708:3714   */\n      dup7\n        /* \"#utility.yul\":3704:3721   */\n      add\n        /* \"#utility.yul\":3656:3735   */\n      tag_56\n      jump\t// in\n    tag_106:\n        /* \"#utility.yul\":3647:3735   */\n      swap2\n      pop\n        /* \"#utility.yul\":3463:3741   */\n      pop\n        /* \"#utility.yul\":3401:3741   */\n      swap3\n      swap2\n      pop\n      pop\n      jump\t// out\n        /* \"#utility.yul\":3747:4256   */\n    tag_13:\n        /* \"#utility.yul\":3816:3822   */\n      0x00\n        /* \"#utility.yul\":3865:3867   */\n      0x20\n        /* \"#utility.yul\":3853:3862   */\n      dup3\n        /* \"#utility.yul\":3844:3851   */\n      dup5\n        /* \"#utility.yul\":3840:3863   */\n      sub\n        /* \"#utility.yul\":3836:3868   */\n      slt\n        /* \"#utility.yul\":3833:3952   */\n      iszero\n      tag_108\n      jumpi\n        /* \"#utility.yul\":3871:3950   */\n      tag_109\n      tag_41\n      jump\t// in\n    tag_109:\n        /* \"#utility.yul\":3833:3952   */\n    tag_108:\n        /* \"#utility.yul\":4019:4020   */\n      0x00\n        /* \"#utility.yul\":4008:4017   */\n      dup3\n        /* \"#utility.yul\":4004:4021   */\n      add\n        /* \"#utility.yul\":3991:4022   */\n      calldataload\n        /* \"#utility.yul\":4049:4067   */\n      0xffffffffffffffff\n        /* \"#utility.yul\":4041:4047   */\n      dup2\n        /* \"#utility.yul\":4038:4068   */\n      gt\n        /* \"#utility.yul\":4035:4152   */\n      iszero\n      tag_110\n      jumpi\n        /* \"#utility.yul\":4071:4150   */\n      tag_111\n      tag_42\n      jump\t// in\n    tag_111:\n        /* \"#utility.yul\":4035:4152   */\n    tag_110:\n        /* \"#utility.yul\":4176:4239   */\n      tag_112\n        /* \"#utility.yul\":4231:4238   */\n      dup5\n        /* \"#utility.yul\":4222:4228   */\n      dup3\n        /* \"#utility.yul\":4211:4220   */\n      dup6\n        /* \"#utility.yul\":4207:4229   */\n      add\n        /* \"#utility.yul\":4176:4239   */\n      tag_57\n      jump\t// in\n    tag_112:\n        /* \"#utility.yul\":4166:4239   */\n      swap2\n      pop\n        /* \"#utility.yul\":3962:4249   */\n      pop\n        /* \"#utility.yul\":3747:4256   */\n      swap3\n      swap2\n      pop\n      pop\n      jump\t// out\n        /* \"#utility.yul\":4262:4431   */\n    tag_58:\n        /* \"#utility.yul\":4346:4357   */\n      0x00\n        /* \"#utility.yul\":4380:4386   */\n      dup3\n        /* \"#utility.yul\":4375:4378   */\n      dup3\n        /* \"#utility.yul\":4368:4387   */\n      mstore\n        /* \"#utility.yul\":4420:4424   */\n      0x20\n        /* \"#utility.yul\":4415:4418   */\n      dup3\n        /* \"#utility.yul\":4411:4425   */\n      add\n        /* \"#utility.yul\":4396:4425   */\n      swap1\n      pop\n        /* \"#utility.yul\":4262:4431   */\n      swap3\n      swap2\n      pop\n      pop\n      jump\t// out\n        /* \"#utility.yul\":4437:4618   */\n    tag_59:\n        /* \"#utility.yul\":4577:4610   */\n      0x496e76616c696420526f6d616e206e756d6572616c2063686172616374657200\n        /* \"#utility.yul\":4573:4574   */\n      0x00\n        /* \"#utility.yul\":4565:4571   */\n      dup3\n        /* \"#utility.yul\":4561:4575   */\n      add\n        /* \"#utility.yul\":4554:4611   */\n      mstore\n        /* \"#utility.yul\":4437:4618   */\n      pop\n      jump\t// out\n        /* \"#utility.yul\":4624:4990   */\n    tag_60:\n        /* \"#utility.yul\":4766:4769   */\n      0x00\n        /* \"#utility.yul\":4787:4854   */\n      tag_116\n        /* \"#utility.yul\":4851:4853   */\n      0x1f\n        /* \"#utility.yul\":4846:4849   */\n      dup4\n        /* \"#utility.yul\":4787:4854   */\n      tag_58\n      jump\t// in\n    tag_116:\n        /* \"#utility.yul\":4780:4854   */\n      swap2\n      pop\n        /* \"#utility.yul\":4863:4956   */\n      tag_117\n        /* \"#utility.yul\":4952:4955   */\n      dup3\n        /* \"#utility.yul\":4863:4956   */\n      tag_59\n      jump\t// in\n    tag_117:\n        /* \"#utility.yul\":4981:4983   */\n      0x20\n        /* \"#utility.yul\":4976:4979   */\n      dup3\n        /* \"#utility.yul\":4972:4984   */\n      add\n        /* \"#utility.yul\":4965:4984   */\n      swap1\n      pop\n        /* \"#utility.yul\":4624:4990   */\n      swap2\n      swap1\n      pop\n      jump\t// out\n        /* \"#utility.yul\":4996:5415   */\n    tag_19:\n        /* \"#utility.yul\":5162:5166   */\n      0x00\n        /* \"#utility.yul\":5200:5202   */\n      0x20\n        /* \"#utility.yul\":5189:5198   */\n      dup3\n        /* \"#utility.yul\":5185:5203   */\n      add\n        /* \"#utility.yul\":5177:5203   */\n      swap1\n      pop\n        /* \"#utility.yul\":5249:5258   */\n      dup2\n        /* \"#utility.yul\":5243:5247   */\n      dup2\n        /* \"#utility.yul\":5239:5259   */\n      sub\n        /* \"#utility.yul\":5235:5236   */\n      0x00\n        /* \"#utility.yul\":5224:5233   */\n      dup4\n        /* \"#utility.yul\":5220:5237   */\n      add\n        /* \"#utility.yul\":5213:5260   */\n      mstore\n        /* \"#utility.yul\":5277:5408   */\n      tag_119\n        /* \"#utility.yul\":5403:5407   */\n      dup2\n        /* \"#utility.yul\":5277:5408   */\n      tag_60\n      jump\t// in\n    tag_119:\n        /* \"#utility.yul\":5269:5408   */\n      swap1\n      pop\n        /* \"#utility.yul\":4996:5415   */\n      swap2\n      swap1\n      pop\n      jump\t// out\n        /* \"#utility.yul\":5421:5601   */\n    tag_28:\n        /* \"#utility.yul\":5469:5546   */\n      0x4e487b7100000000000000000000000000000000000000000000000000000000\n        /* \"#utility.yul\":5466:5467   */\n      0x00\n        /* \"#utility.yul\":5459:5547   */\n      mstore\n        /* \"#utility.yul\":5566:5570   */\n      0x32\n        /* \"#utility.yul\":5563:5564   */\n      0x04\n        /* \"#utility.yul\":5556:5571   */\n      mstore\n        /* \"#utility.yul\":5590:5594   */\n      0x24\n        /* \"#utility.yul\":5587:5588   */\n      0x00\n        /* \"#utility.yul\":5580:5595   */\n      revert\n        /* \"#utility.yul\":5607:5787   */\n    tag_61:\n        /* \"#utility.yul\":5655:5732   */\n      0x4e487b7100000000000000000000000000000000000000000000000000000000\n        /* \"#utility.yul\":5652:5653   */\n      0x00\n        /* \"#utility.yul\":5645:5733   */\n      mstore\n        /* \"#utility.yul\":5752:5756   */\n      0x11\n        /* \"#utility.yul\":5749:5750   */\n      0x04\n        /* \"#utility.yul\":5742:5757   */\n      mstore\n        /* \"#utility.yul\":5776:5780   */\n      0x24\n        /* \"#utility.yul\":5773:5774   */\n      0x00\n        /* \"#utility.yul\":5766:5781   */\n      revert\n        /* \"#utility.yul\":5793:5987   */\n    tag_30:\n        /* \"#utility.yul\":5833:5837   */\n      0x00\n        /* \"#utility.yul\":5853:5873   */\n      tag_123\n        /* \"#utility.yul\":5871:5872   */\n      dup3\n        /* \"#utility.yul\":5853:5873   */\n      tag_46\n      jump\t// in\n    tag_123:\n        /* \"#utility.yul\":5848:5873   */\n      swap2\n      pop\n        /* \"#utility.yul\":5887:5907   */\n      tag_124\n        /* \"#utility.yul\":5905:5906   */\n      dup4\n        /* \"#utility.yul\":5887:5907   */\n      tag_46\n      jump\t// in\n    tag_124:\n        /* \"#utility.yul\":5882:5907   */\n      swap3\n      pop\n        /* \"#utility.yul\":5931:5932   */\n      dup3\n        /* \"#utility.yul\":5928:5929   */\n      dup3\n        /* \"#utility.yul\":5924:5933   */\n      sub\n        /* \"#utility.yul\":5916:5933   */\n      swap1\n      pop\n        /* \"#utility.yul\":5955:5956   */\n      dup2\n        /* \"#utility.yul\":5949:5953   */\n      dup2\n        /* \"#utility.yul\":5946:5957   */\n      gt\n        /* \"#utility.yul\":5943:5980   */\n      iszero\n      tag_125\n      jumpi\n        /* \"#utility.yul\":5960:5978   */\n      tag_126\n      tag_61\n      jump\t// in\n    tag_126:\n        /* \"#utility.yul\":5943:5980   */\n    tag_125:\n        /* \"#utility.yul\":5793:5987   */\n      swap3\n      swap2\n      pop\n      pop\n      jump\t// out\n        /* \"#utility.yul\":5993:6184   */\n    tag_34:\n        /* \"#utility.yul\":6033:6036   */\n      0x00\n        /* \"#utility.yul\":6052:6072   */\n      tag_128\n        /* \"#utility.yul\":6070:6071   */\n      dup3\n        /* \"#utility.yul\":6052:6072   */\n      tag_46\n      jump\t// in\n    tag_128:\n        /* \"#utility.yul\":6047:6072   */\n      swap2\n      pop\n        /* \"#utility.yul\":6086:6106   */\n      tag_129\n        /* \"#utility.yul\":6104:6105   */\n      dup4\n        /* \"#utility.yul\":6086:6106   */\n      tag_46\n      jump\t// in\n    tag_129:\n        /* \"#utility.yul\":6081:6106   */\n      swap3\n      pop\n        /* \"#utility.yul\":6129:6130   */\n      dup3\n        /* \"#utility.yul\":6126:6127   */\n      dup3\n        /* \"#utility.yul\":6122:6131   */\n      add\n        /* \"#utility.yul\":6115:6131   */\n      swap1\n      pop\n        /* \"#utility.yul\":6150:6153   */\n      dup1\n        /* \"#utility.yul\":6147:6148   */\n      dup3\n        /* \"#utility.yul\":6144:6154   */\n      gt\n        /* \"#utility.yul\":6141:6177   */\n      iszero\n      tag_130\n      jumpi\n        /* \"#utility.yul\":6157:6175   */\n      tag_131\n      tag_61\n      jump\t// in\n    tag_131:\n        /* \"#utility.yul\":6141:6177   */\n    tag_130:\n        /* \"#utility.yul\":5993:6184   */\n      swap3\n      swap2\n      pop\n      pop\n      jump\t// out\n\n    auxdata: 0xa26469706673582212203b228684f5d54fcd46349d3bdc28c17a1cbde8a28ee7e92306463dcce80ba8ee64736f6c634300081e0033\n}\n",
				"bytecode": {
					"linkReferences": {},
					"object": "608060405234801561000f575f5ffd5b5060015f5f7f49000000000000000000000000000000000000000000000000000000000000007effffffffffffffffffffffffffffffffffffffffffffffffffffffffffffff191681526020019081526020015f208190555060055f5f7f56000000000000000000000000000000000000000000000000000000000000007effffffffffffffffffffffffffffffffffffffffffffffffffffffffffffff191681526020019081526020015f2081905550600a5f5f7f58000000000000000000000000000000000000000000000000000000000000007effffffffffffffffffffffffffffffffffffffffffffffffffffffffffffff191681526020019081526020015f208190555060325f5f7f4c000000000000000000000000000000000000000000000000000000000000007effffffffffffffffffffffffffffffffffffffffffffffffffffffffffffff191681526020019081526020015f208190555060645f5f7f43000000000000000000000000000000000000000000000000000000000000007effffffffffffffffffffffffffffffffffffffffffffffffffffffffffffff191681526020019081526020015f20819055506101f45f5f7f44000000000000000000000000000000000000000000000000000000000000007effffffffffffffffffffffffffffffffffffffffffffffffffffffffffffff191681526020019081526020015f20819055506103e85f5f7f4d000000000000000000000000000000000000000000000000000000000000007effffffffffffffffffffffffffffffffffffffffffffffffffffffffffffff191681526020019081526020015f20819055506105d6806102875f395ff3fe608060405234801561000f575f5ffd5b5060043610610034575f3560e01c80632f0e44d814610038578063cb159dfe14610068575b5f5ffd5b610052600480360381019061004d9190610289565b610098565b60405161005f91906102cc565b60405180910390f35b610082600480360381019061007d9190610421565b61013c565b60405161008f91906102cc565b60405180910390f35b5f5f5f5f847effffffffffffffffffffffffffffffffffffffffffffffffffffffffffffff19167effffffffffffffffffffffffffffffffffffffffffffffffffffffffffffff191681526020019081526020015f205490505f8103610133576040517f08c379a000000000000000000000000000000000000000000000000000000000815260040161012a906104c2565b60405180910390fd5b80915050919050565b5f5f8290505f815190505f8103610157575f9250505061021e565b5f5f90505f5f90505b82811015610216575f61018f85838151811061017f5761017e6104e0565b5b602001015160f81c60f81b610098565b905060018461019e919061053a565b8210156101f9575f6101d8866001856101b7919061056d565b815181106101c8576101c76104e0565b5b602001015160f81c60f81b610098565b9050808210156101f75781846101ee919061053a565b93505050610209565b505b8083610205919061056d565b9250505b8080600101915050610160565b508093505050505b919050565b5f604051905090565b5f5ffd5b5f5ffd5b5f7fff0000000000000000000000000000000000000000000000000000000000000082169050919050565b61026881610234565b8114610272575f5ffd5b50565b5f813590506102838161025f565b92915050565b5f6020828403121561029e5761029d61022c565b5b5f6102ab84828501610275565b91505092915050565b5f819050919050565b6102c6816102b4565b82525050565b5f6020820190506102df5f8301846102bd565b92915050565b5f5ffd5b5f5ffd5b5f601f19601f8301169050919050565b7f4e487b71000000000000000000000000000000000000000000000000000000005f52604160045260245ffd5b610333826102ed565b810181811067ffffffffffffffff82111715610352576103516102fd565b5b80604052505050565b5f610364610223565b9050610370828261032a565b919050565b5f67ffffffffffffffff82111561038f5761038e6102fd565b5b610398826102ed565b9050602081019050919050565b828183375f83830152505050565b5f6103c56103c084610375565b61035b565b9050828152602081018484840111156103e1576103e06102e9565b5b6103ec8482856103a5565b509392505050565b5f82601f830112610408576104076102e5565b5b81356104188482602086016103b3565b91505092915050565b5f602082840312156104365761043561022c565b5b5f82013567ffffffffffffffff81111561045357610452610230565b5b61045f848285016103f4565b91505092915050565b5f82825260208201905092915050565b7f496e76616c696420526f6d616e206e756d6572616c20636861726163746572005f82015250565b5f6104ac601f83610468565b91506104b782610478565b602082019050919050565b5f6020820190508181035f8301526104d9816104a0565b9050919050565b7f4e487b71000000000000000000000000000000000000000000000000000000005f52603260045260245ffd5b7f4e487b71000000000000000000000000000000000000000000000000000000005f52601160045260245ffd5b5f610544826102b4565b915061054f836102b4565b92508282039050818111156105675761056661050d565b5b92915050565b5f610577826102b4565b9150610582836102b4565b925082820190508082111561059a5761059961050d565b5b9291505056fea26469706673582212203b228684f5d54fcd46349d3bdc28c17a1cbde8a28ee7e92306463dcce80ba8ee64736f6c634300081e0033",
					"opcodes": "PUSH1 0x80 PUSH1 0x40 MSTORE CALLVALUE DUP1 ISZERO PUSH2 0xF JUMPI PUSH0 PUSH0 REVERT JUMPDEST POP PUSH1 0x1 PUSH0 PUSH0 PUSH32 0x4900000000000000000000000000000000000000000000000000000000000000 PUSH31 0xFFFFFFFFFFFFFFFFFFFFFFFFFFFFFFFFFFFFFFFFFFFFFFFFFFFFFFFFFFFFFF NOT AND DUP2 MSTORE PUSH1 0x20 ADD SWAP1 DUP2 MSTORE PUSH1 0x20 ADD PUSH0 KECCAK256 DUP2 SWAP1 SSTORE POP PUSH1 0x5 PUSH0 PUSH0 PUSH32 0x5600000000000000000000000000000000000000000000000000000000000000 PUSH31 0xFFFFFFFFFFFFFFFFFFFFFFFFFFFFFFFFFFFFFFFFFFFFFFFFFFFFFFFFFFFFFF NOT AND DUP2 MSTORE PUSH1 0x20 ADD SWAP1 DUP2 MSTORE PUSH1 0x20 ADD PUSH0 KECCAK256 DUP2 SWAP1 SSTORE POP PUSH1 0xA PUSH0 PUSH0 PUSH32 0x5800000000000000000000000000000000000000000000000000000000000000 PUSH31 0xFFFFFFFFFFFFFFFFFFFFFFFFFFFFFFFFFFFFFFFFFFFFFFFFFFFFFFFFFFFFFF NOT AND DUP2 MSTORE PUSH1 0x20 ADD SWAP1 DUP2 MSTORE PUSH1 0x20 ADD PUSH0 KECCAK256 DUP2 SWAP1 SSTORE POP PUSH1 0x32 PUSH0 PUSH0 PUSH32 0x4C00000000000000000000000000000000000000000000000000000000000000 PUSH31 0xFFFFFFFFFFFFFFFFFFFFFFFFFFFFFFFFFFFFFFFFFFFFFFFFFFFFFFFFFFFFFF NOT AND DUP2 MSTORE PUSH1 0x20 ADD SWAP1 DUP2 MSTORE PUSH1 0x20 ADD PUSH0 KECCAK256 DUP2 SWAP1 SSTORE POP PUSH1 0x64 PUSH0 PUSH0 PUSH32 0x4300000000000000000000000000000000000000000000000000000000000000 PUSH31 0xFFFFFFFFFFFFFFFFFFFFFFFFFFFFFFFFFFFFFFFFFFFFFFFFFFFFFFFFFFFFFF NOT AND DUP2 MSTORE PUSH1 0x20 ADD SWAP1 DUP2 MSTORE PUSH1 0x20 ADD PUSH0 KECCAK256 DUP2 SWAP1 SSTORE POP PUSH2 0x1F4 PUSH0 PUSH0 PUSH32 0x4400000000000000000000000000000000000000000000000000000000000000 PUSH31 0xFFFFFFFFFFFFFFFFFFFFFFFFFFFFFFFFFFFFFFFFFFFFFFFFFFFFFFFFFFFFFF NOT AND DUP2 MSTORE PUSH1 0x20 ADD SWAP1 DUP2 MSTORE PUSH1 0x20 ADD PUSH0 KECCAK256 DUP2 SWAP1 SSTORE POP PUSH2 0x3E8 PUSH0 PUSH0 PUSH32 0x4D00000000000000000000000000000000000000000000000000000000000000 PUSH31 0xFFFFFFFFFFFFFFFFFFFFFFFFFFFFFFFFFFFFFFFFFFFFFFFFFFFFFFFFFFFFFF NOT AND DUP2 MSTORE PUSH1 0x20 ADD SWAP1 DUP2 MSTORE PUSH1 0x20 ADD PUSH0 KECCAK256 DUP2 SWAP1 SSTORE POP PUSH2 0x5D6 DUP1 PUSH2 0x287 PUSH0 CODECOPY PUSH0 RETURN INVALID PUSH1 0x80 PUSH1 0x40 MSTORE CALLVALUE DUP1 ISZERO PUSH2 0xF JUMPI PUSH0 PUSH0 REVERT JUMPDEST POP PUSH1 0x4 CALLDATASIZE LT PUSH2 0x34 JUMPI PUSH0 CALLDATALOAD PUSH1 0xE0 SHR DUP1 PUSH4 0x2F0E44D8 EQ PUSH2 0x38 JUMPI DUP1 PUSH4 0xCB159DFE EQ PUSH2 0x68 JUMPI JUMPDEST PUSH0 PUSH0 REVERT JUMPDEST PUSH2 0x52 PUSH1 0x4 DUP1 CALLDATASIZE SUB DUP2 ADD SWAP1 PUSH2 0x4D SWAP2 SWAP1 PUSH2 0x289 JUMP JUMPDEST PUSH2 0x98 JUMP JUMPDEST PUSH1 0x40 MLOAD PUSH2 0x5F SWAP2 SWAP1 PUSH2 0x2CC JUMP JUMPDEST PUSH1 0x40 MLOAD DUP1 SWAP2 SUB SWAP1 RETURN JUMPDEST PUSH2 0x82 PUSH1 0x4 DUP1 CALLDATASIZE SUB DUP2 ADD SWAP1 PUSH2 0x7D SWAP2 SWAP1 PUSH2 0x421 JUMP JUMPDEST PUSH2 0x13C JUMP JUMPDEST PUSH1 0x40 MLOAD PUSH2 0x8F SWAP2 SWAP1 PUSH2 0x2CC JUMP JUMPDEST PUSH1 0x40 MLOAD DUP1 SWAP2 SUB SWAP1 RETURN JUMPDEST PUSH0 PUSH0 PUSH0 PUSH0 DUP5 PUSH31 0xFFFFFFFFFFFFFFFFFFFFFFFFFFFFFFFFFFFFFFFFFFFFFFFFFFFFFFFFFFFFFF NOT AND PUSH31 0xFFFFFFFFFFFFFFFFFFFFFFFFFFFFFFFFFFFFFFFFFFFFFFFFFFFFFFFFFFFFFF NOT AND DUP2 MSTORE PUSH1 0x20 ADD SWAP1 DUP2 MSTORE PUSH1 0x20 ADD PUSH0 KECCAK256 SLOAD SWAP1 POP PUSH0 DUP2 SUB PUSH2 0x133 JUMPI PUSH1 0x40 MLOAD PUSH32 0x8C379A000000000000000000000000000000000000000000000000000000000 DUP2 MSTORE PUSH1 0x4 ADD PUSH2 0x12A SWAP1 PUSH2 0x4C2 JUMP JUMPDEST PUSH1 0x40 MLOAD DUP1 SWAP2 SUB SWAP1 REVERT JUMPDEST DUP1 SWAP2 POP POP SWAP2 SWAP1 POP JUMP JUMPDEST PUSH0 PUSH0 DUP3 SWAP1 POP PUSH0 DUP2 MLOAD SWAP1 POP PUSH0 DUP2 SUB PUSH2 0x157 JUMPI PUSH0 SWAP3 POP POP POP PUSH2 0x21E JUMP JUMPDEST PUSH0 PUSH0 SWAP1 POP PUSH0 PUSH0 SWAP1 POP JUMPDEST DUP3 DUP2 LT ISZERO PUSH2 0x216 JUMPI PUSH0 PUSH2 0x18F DUP6 DUP4 DUP2 MLOAD DUP2 LT PUSH2 0x17F JUMPI PUSH2 0x17E PUSH2 0x4E0 JUMP JUMPDEST JUMPDEST PUSH1 0x20 ADD ADD MLOAD PUSH1 0xF8 SHR PUSH1 0xF8 SHL PUSH2 0x98 JUMP JUMPDEST SWAP1 POP PUSH1 0x1 DUP5 PUSH2 0x19E SWAP2 SWAP1 PUSH2 0x53A JUMP JUMPDEST DUP3 LT ISZERO PUSH2 0x1F9 JUMPI PUSH0 PUSH2 0x1D8 DUP7 PUSH1 0x1 DUP6 PUSH2 0x1B7 SWAP2 SWAP1 PUSH2 0x56D JUMP JUMPDEST DUP2 MLOAD DUP2 LT PUSH2 0x1C8 JUMPI PUSH2 0x1C7 PUSH2 0x4E0 JUMP JUMPDEST JUMPDEST PUSH1 0x20 ADD ADD MLOAD PUSH1 0xF8 SHR PUSH1 0xF8 SHL PUSH2 0x98 JUMP JUMPDEST SWAP1 POP DUP1 DUP3 LT ISZERO PUSH2 0x1F7 JUMPI DUP2 DUP5 PUSH2 0x1EE SWAP2 SWAP1 PUSH2 0x53A JUMP JUMPDEST SWAP4 POP POP POP PUSH2 0x209 JUMP JUMPDEST POP JUMPDEST DUP1 DUP4 PUSH2 0x205 SWAP2 SWAP1 PUSH2 0x56D JUMP JUMPDEST SWAP3 POP POP JUMPDEST DUP1 DUP1 PUSH1 0x1 ADD SWAP2 POP POP PUSH2 0x160 JUMP JUMPDEST POP DUP1 SWAP4 POP POP POP POP JUMPDEST SWAP2 SWAP1 POP JUMP JUMPDEST PUSH0 PUSH1 0x40 MLOAD SWAP1 POP SWAP1 JUMP JUMPDEST PUSH0 PUSH0 REVERT JUMPDEST PUSH0 PUSH0 REVERT JUMPDEST PUSH0 PUSH32 0xFF00000000000000000000000000000000000000000000000000000000000000 DUP3 AND SWAP1 POP SWAP2 SWAP1 POP JUMP JUMPDEST PUSH2 0x268 DUP2 PUSH2 0x234 JUMP JUMPDEST DUP2 EQ PUSH2 0x272 JUMPI PUSH0 PUSH0 REVERT JUMPDEST POP JUMP JUMPDEST PUSH0 DUP2 CALLDATALOAD SWAP1 POP PUSH2 0x283 DUP2 PUSH2 0x25F JUMP JUMPDEST SWAP3 SWAP2 POP POP JUMP JUMPDEST PUSH0 PUSH1 0x20 DUP3 DUP5 SUB SLT ISZERO PUSH2 0x29E JUMPI PUSH2 0x29D PUSH2 0x22C JUMP JUMPDEST JUMPDEST PUSH0 PUSH2 0x2AB DUP5 DUP3 DUP6 ADD PUSH2 0x275 JUMP JUMPDEST SWAP2 POP POP SWAP3 SWAP2 POP POP JUMP JUMPDEST PUSH0 DUP2 SWAP1 POP SWAP2 SWAP1 POP JUMP JUMPDEST PUSH2 0x2C6 DUP2 PUSH2 0x2B4 JUMP JUMPDEST DUP3 MSTORE POP POP JUMP JUMPDEST PUSH0 PUSH1 0x20 DUP3 ADD SWAP1 POP PUSH2 0x2DF PUSH0 DUP4 ADD DUP5 PUSH2 0x2BD JUMP JUMPDEST SWAP3 SWAP2 POP POP JUMP JUMPDEST PUSH0 PUSH0 REVERT JUMPDEST PUSH0 PUSH0 REVERT JUMPDEST PUSH0 PUSH1 0x1F NOT PUSH1 0x1F DUP4 ADD AND SWAP1 POP SWAP2 SWAP1 POP JUMP JUMPDEST PUSH32 0x4E487B7100000000000000000000000000000000000000000000000000000000 PUSH0 MSTORE PUSH1 0x41 PUSH1 0x4 MSTORE PUSH1 0x24 PUSH0 REVERT JUMPDEST PUSH2 0x333 DUP3 PUSH2 0x2ED JUMP JUMPDEST DUP2 ADD DUP2 DUP2 LT PUSH8 0xFFFFFFFFFFFFFFFF DUP3 GT OR ISZERO PUSH2 0x352 JUMPI PUSH2 0x351 PUSH2 0x2FD JUMP JUMPDEST JUMPDEST DUP1 PUSH1 0x40 MSTORE POP POP POP JUMP JUMPDEST PUSH0 PUSH2 0x364 PUSH2 0x223 JUMP JUMPDEST SWAP1 POP PUSH2 0x370 DUP3 DUP3 PUSH2 0x32A JUMP JUMPDEST SWAP2 SWAP1 POP JUMP JUMPDEST PUSH0 PUSH8 0xFFFFFFFFFFFFFFFF DUP3 GT ISZERO PUSH2 0x38F JUMPI PUSH2 0x38E PUSH2 0x2FD JUMP JUMPDEST JUMPDEST PUSH2 0x398 DUP3 PUSH2 0x2ED JUMP JUMPDEST SWAP1 POP PUSH1 0x20 DUP2 ADD SWAP1 POP SWAP2 SWAP1 POP JUMP JUMPDEST DUP3 DUP2 DUP4 CALLDATACOPY PUSH0 DUP4 DUP4 ADD MSTORE POP POP POP JUMP JUMPDEST PUSH0 PUSH2 0x3C5 PUSH2 0x3C0 DUP5 PUSH2 0x375 JUMP JUMPDEST PUSH2 0x35B JUMP JUMPDEST SWAP1 POP DUP3 DUP2 MSTORE PUSH1 0x20 DUP2 ADD DUP5 DUP5 DUP5 ADD GT ISZERO PUSH2 0x3E1 JUMPI PUSH2 0x3E0 PUSH2 0x2E9 JUMP JUMPDEST JUMPDEST PUSH2 0x3EC DUP5 DUP3 DUP6 PUSH2 0x3A5 JUMP JUMPDEST POP SWAP4 SWAP3 POP POP POP JUMP JUMPDEST PUSH0 DUP3 PUSH1 0x1F DUP4 ADD SLT PUSH2 0x408 JUMPI PUSH2 0x407 PUSH2 0x2E5 JUMP JUMPDEST JUMPDEST DUP2 CALLDATALOAD PUSH2 0x418 DUP5 DUP3 PUSH1 0x20 DUP7 ADD PUSH2 0x3B3 JUMP JUMPDEST SWAP2 POP POP SWAP3 SWAP2 POP POP JUMP JUMPDEST PUSH0 PUSH1 0x20 DUP3 DUP5 SUB SLT ISZERO PUSH2 0x436 JUMPI PUSH2 0x435 PUSH2 0x22C JUMP JUMPDEST JUMPDEST PUSH0 DUP3 ADD CALLDATALOAD PUSH8 0xFFFFFFFFFFFFFFFF DUP2 GT ISZERO PUSH2 0x453 JUMPI PUSH2 0x452 PUSH2 0x230 JUMP JUMPDEST JUMPDEST PUSH2 0x45F DUP5 DUP3 DUP6 ADD PUSH2 0x3F4 JUMP JUMPDEST SWAP2 POP POP SWAP3 SWAP2 POP POP JUMP JUMPDEST PUSH0 DUP3 DUP3 MSTORE PUSH1 0x20 DUP3 ADD SWAP1 POP SWAP3 SWAP2 POP POP JUMP JUMPDEST PUSH32 0x496E76616C696420526F6D616E206E756D6572616C2063686172616374657200 PUSH0 DUP3 ADD MSTORE POP JUMP JUMPDEST PUSH0 PUSH2 0x4AC PUSH1 0x1F DUP4 PUSH2 0x468 JUMP JUMPDEST SWAP2 POP PUSH2 0x4B7 DUP3 PUSH2 0x478 JUMP JUMPDEST PUSH1 0x20 DUP3 ADD SWAP1 POP SWAP2 SWAP1 POP JUMP JUMPDEST PUSH0 PUSH1 0x20 DUP3 ADD SWAP1 POP DUP2 DUP2 SUB PUSH0 DUP4 ADD MSTORE PUSH2 0x4D9 DUP2 PUSH2 0x4A0 JUMP JUMPDEST SWAP1 POP SWAP2 SWAP1 POP JUMP JUMPDEST PUSH32 0x4E487B7100000000000000000000000000000000000000000000000000000000 PUSH0 MSTORE PUSH1 0x32 PUSH1 0x4 MSTORE PUSH1 0x24 PUSH0 REVERT JUMPDEST PUSH32 0x4E487B7100000000000000000000000000000000000000000000000000000000 PUSH0 MSTORE PUSH1 0x11 PUSH1 0x4 MSTORE PUSH1 0x24 PUSH0 REVERT JUMPDEST PUSH0 PUSH2 0x544 DUP3 PUSH2 0x2B4 JUMP JUMPDEST SWAP2 POP PUSH2 0x54F DUP4 PUSH2 0x2B4 JUMP JUMPDEST SWAP3 POP DUP3 DUP3 SUB SWAP1 POP DUP2 DUP2 GT ISZERO PUSH2 0x567 JUMPI PUSH2 0x566 PUSH2 0x50D JUMP JUMPDEST JUMPDEST SWAP3 SWAP2 POP POP JUMP JUMPDEST PUSH0 PUSH2 0x577 DUP3 PUSH2 0x2B4 JUMP JUMPDEST SWAP2 POP PUSH2 0x582 DUP4 PUSH2 0x2B4 JUMP JUMPDEST SWAP3 POP DUP3 DUP3 ADD SWAP1 POP DUP1 DUP3 GT ISZERO PUSH2 0x59A JUMPI PUSH2 0x599 PUSH2 0x50D JUMP JUMPDEST JUMPDEST SWAP3 SWAP2 POP POP JUMP INVALID LOG2 PUSH5 0x6970667358 0x22 SLT KECCAK256 EXTCODESIZE 0x22 DUP7 DUP5 CREATE2 0xD5 0x4F 0xCD CHAINID CALLVALUE SWAP14 EXTCODESIZE 0xDC 0x28 0xC1 PUSH27 0x1CBDE8A28EE7E92306463DCCE80BA8EE64736F6C634300081E0033 "
				},
				"gasEstimates": {
					"creation": {
						"codeDepositCost": "298800",
						"executionCost": "155721",
						"totalCost": "454521"
					},
					"external": {
						"getValue(bytes1)": "2894",
						"romanToInt(string)": "infinite"
					}
				},
				"methodIdentifiers": {
					"getValue(bytes1)": "2f0e44d8",
					"romanToInt(string)": "cb159dfe"
				}
			},
			"storageLayout": {
				"storage": [
					{
						"astId": 5,
						"contract": "contracts/RomanToInteger.sol:RomanToInteger",
						"label": "romanValues",
						"offset": 0,
						"slot": "0",
						"type": "t_mapping(t_bytes1,t_uint256)"
					}
				],
				"types": {
					"t_bytes1": {
						"encoding": "inplace",
						"label": "bytes1",
						"numberOfBytes": "1"
					},
					"t_mapping(t_bytes1,t_uint256)": {
						"encoding": "mapping",
						"key": "t_bytes1",
						"label": "mapping(bytes1 => uint256)",
						"numberOfBytes": "32",
						"value": "t_uint256"
					},
					"t_uint256": {
						"encoding": "inplace",
						"label": "uint256",
						"numberOfBytes": "32"
					}
				}
			},
			"userdoc": {
				"kind": "user",
				"methods": {},
				"version": 1
			}
		}
	}
}