{
	"data": {
		"bytecode": {
			"linkReferences": {},
			"object": "608060405234801561000f575f5ffd5b5060015f5f7f49000000000000000000000000000000000000000000000000000000000000007effffffffffffffffffffffffffffffffffffffffffffffffffffffffffffff191681526020019081526020015f208190555060055f5f7f56000000000000000000000000000000000000000000000000000000000000007effffffffffffffffffffffffffffffffffffffffffffffffffffffffffffff191681526020019081526020015f2081905550600a5f5f7f58000000000000000000000000000000000000000000000000000000000000007effffffffffffffffffffffffffffffffffffffffffffffffffffffffffffff191681526020019081526020015f208190555060325f5f7f4c000000000000000000000000000000000000000000000000000000000000007effffffffffffffffffffffffffffffffffffffffffffffffffffffffffffff191681526020019081526020015f208190555060645f5f7f43000000000000000000000000000000000000000000000000000000000000007effffffffffffffffffffffffffffffffffffffffffffffffffffffffffffff191681526020019081526020015f20819055506101f45f5f7f44000000000000000000000000000000000000000000000000000000000000007effffffffffffffffffffffffffffffffffffffffffffffffffffffffffffff191681526020019081526020015f20819055506103e85f5f7f4d000000000000000000000000000000000000000000000000000000000000007effffffffffffffffffffffffffffffffffffffffffffffffffffffffffffff191681526020019081526020015f20819055506105d6806102875f395ff3fe608060405234801561000f575f5ffd5b5060043610610034575f3560e01c80632f0e44d814610038578063cb159dfe14610068575b5f5ffd5b610052600480360381019061004d9190610289565b610098565b60405161005f91906102cc565b60405180910390f35b610082600480360381019061007d9190610421565b61013c565b60405161008f91906102cc565b60405180910390f35b5f5f5f5f847effffffffffffffffffffffffffffffffffffffffffffffffffffffffffffff19167effffffffffffffffffffffffffffffffffffffffffffffffffffffffffffff191681526020019081526020015f205490505f8103610133576040517f08c379a000000000000000000000000000000000000000000000000000000000815260040161012a906104c2565b60405180910390fd5b80915050919050565b5f5f8290505f815190505f8103610157575f9250505061021e565b5f5f90505f5f90505b82811015610216575f61018f85838151811061017f5761017e6104e0565b5b602001015160f81c60f81b610098565b905060018461019e919061053a565b8210156101f9575f6101d8866001856101b7919061056d565b815181106101c8576101c76104e0565b5b602001015160f81c60f81b610098565b9050808210156101f75781846101ee919061053a565b93505050610209565b505b8083610205919061056d565b9250505b8080600101915050610160565b508093505050505b919050565b5f604051905090565b5f5ffd5b5f5ffd5b5f7fff0000000000000000000000000000000000000000000000000000000000000082169050919050565b61026881610234565b8114610272575f5ffd5b50565b5f813590506102838161025f565b92915050565b5f6020828403121561029e5761029d61022c565b5b5f6102ab84828501610275565b91505092915050565b5f819050919050565b6102c6816102b4565b82525050565b5f6020820190506102df5f8301846102bd565b92915050565b5f5ffd5b5f5ffd5b5f601f19601f8301169050919050565b7f4e487b71000000000000000000000000000000000000000000000000000000005f52604160045260245ffd5b610333826102ed565b810181811067ffffffffffffffff82111715610352576103516102fd565b5b80604052505050565b5f610364610223565b9050610370828261032a565b919050565b5f67ffffffffffffffff82111561038f5761038e6102fd565b5b610398826102ed565b9050602081019050919050565b828183375f83830152505050565b5f6103c56103c084610375565b61035b565b9050828152602081018484840111156103e1576103e06102e9565b5b6103ec8482856103a5565b509392505050565b5f82601f830112610408576104076102e5565b5b81356104188482602086016103b3565b91505092915050565b5f602082840312156104365761043561022c565b5b5f82013567ffffffffffffffff81111561045357610452610230565b5b61045f848285016103f4565b91505092915050565b5f82825260208201905092915050565b7f496e76616c696420526f6d616e206e756d6572616c20636861726163746572005f82015250565b5f6104ac601f83610468565b91506104b782610478565b602082019050919050565b5f6020820190508181035f8301526104d9816104a0565b9050919050565b7f4e487b71000000000000000000000000000000000000000000000000000000005f52603260045260245ffd5b7f4e487b71000000000000000000000000000000000000000000000000000000005f52601160045260245ffd5b5f610544826102b4565b915061054f836102b4565b92508282039050818111156105675761056661050d565b5b92915050565b5f610577826102b4565b9150610582836102b4565b925082820190508082111561059a5761059961050d565b5b9291505056fea26469706673582212203b228684f5d54fcd46349d3bdc28c17a1cbde8a28ee7e92306463dcce80ba8ee64736f6c634300081e0033",
			"opcodes": "PUSH1 0x80 PUSH1 0x40 MSTORE CALLVALUE DUP1 ISZERO PUSH2 0xF JUMPI PUSH0 PUSH0 REVERT JUMPDEST POP PUSH1 0x1 PUSH0 PUSH0 PUSH32 0x4900000000000000000000000000000000000000000000000000000000000000 PUSH31 0xFFFFFFFFFFFFFFFFFFFFFFFFFFFFFFFFFFFFFFFFFFFFFFFFFFFFFFFFFFFFFF NOT AND DUP2 MSTORE PUSH1 0x20 ADD SWAP1 DUP2 MSTORE PUSH1 0x20 ADD PUSH0 KECCAK256 DUP2 SWAP1 SSTORE POP PUSH1 0x5 PUSH0 PUSH0 PUSH32 0x5600000000000000000000000000000000000000000000000000000000000000 PUSH31 0xFFFFFFFFFFFFFFFFFFFFFFFFFFFFFFFFFFFFFFFFFFFFFFFFFFFFFFFFFFFFFF NOT AND DUP2 MSTORE PUSH1 0x20 ADD SWAP1 DUP2 MSTORE PUSH1 0x20 ADD PUSH0 KECCAK256 DUP2 SWAP1 SSTORE POP PUSH1 0xA PUSH0 PUSH0 PUSH32 0x5800000000000000000000000000000000000000000000000000000000000000 PUSH31 0xFFFFFFFFFFFFFFFFFFFFFFFFFFFFFFFFFFFFFFFFFFFFFFFFFFFFFFFFFFFFFF NOT AND DUP2 MSTORE PUSH1 0x20 ADD SWAP1 DUP2 MSTORE PUSH1 0x20 ADD PUSH0 KECCAK256 DUP2 SWAP1 SSTORE POP PUSH1 0x32 PUSH0 PUSH0 PUSH32 0x4C00000000000000000000000000000000000000000000000000000000000000 PUSH31 0xFFFFFFFFFFFFFFFFFFFFFFFFFFFFFFFFFFFFFFFFFFFFFFFFFFFFFFFFFFFFFF NOT AND DUP2 MSTORE PUSH1 0x20 ADD SWAP1 DUP2 MSTORE PUSH1 0x20 ADD PUSH0 KECCAK256 DUP2 SWAP1 SSTORE POP PUSH1 0x64 PUSH0 PUSH0 PUSH32 0x4300000000000000000000000000000000000000000000000000000000000000 PUSH31 0xFFFFFFFFFFFFFFFFFFFFFFFFFFFFFFFFFFFFFFFFFFFFFFFFFFFFFFFFFFFFFF NOT AND DUP2 MSTORE PUSH1 0x20 ADD SWAP1 DUP2 MSTORE PUSH1 0x20 ADD PUSH0 KECCAK256 DUP2 SWAP1 SSTORE POP PUSH2 0x1F4 PUSH0 PUSH0 PUSH32 0x4400000000000000000000000000000000000000000000000000000000000000 PUSH31 0xFFFFFFFFFFFFFFFFFFFFFFFFFFFFFFFFFFFFFFFFFFFFFFFFFFFFFFFFFFFFFF NOT AND DUP2 MSTORE PUSH1 0x20 ADD SWAP1 DUP2 MSTORE PUSH1 0x20 ADD PUSH0 KECCAK256 DUP2 SWAP1 SSTORE POP PUSH2 0x3E8 PUSH0 PUSH0 PUSH32 0x4D00000000000000000000000000000000000000000000000000000000000000 PUSH31 0xFFFFFFFFFFFFFFFFFFFFFFFFFFFFFFFFFFFFFFFFFFFFFFFFFFFFFFFFFFFFFF NOT AND DUP2 MSTORE PUSH1 0x20 ADD SWAP1 DUP2 MSTORE PUSH1 0x20 ADD PUSH0 KECCAK256 DUP2 SWAP1 SSTORE POP PUSH2 0x5D6 DUP1 PUSH2 0x287 PUSH0 CODECOPY PUSH0 RETURN INVALID PUSH1 0x80 PUSH1 0x40 MSTORE CALLVALUE DUP1 ISZERO PUSH2 0xF JUMPI PUSH0 PUSH0 REVERT JUMPDEST POP PUSH1 0x4 CALLDATASIZE LT PUSH2 0x34 JUMPI PUSH0 CALLDATALOAD PUSH1 0xE0 SHR DUP1 PUSH4 0x2F0E44D8 EQ PUSH2 0x38 JUMPI DUP1 PUSH4 0xCB159DFE EQ PUSH2 0x68 JUMPI JUMPDEST PUSH0 PUSH0 REVERT JUMPDEST PUSH2 0x52 PUSH1 0x4 DUP1 CALLDATASIZE SUB DUP2 ADD SWAP1 PUSH2 0x4D SWAP2 SWAP1 PUSH2 0x289 JUMP JUMPDEST PUSH2 0x98 JUMP JUMPDEST PUSH1 0x40 MLOAD PUSH2 0x5F SWAP2 SWAP1 PUSH2 0x2CC JUMP JUMPDEST PUSH1 0x40 MLOAD DUP1 SWAP2 SUB SWAP1 RETURN JUMPDEST PUSH2 0x82 PUSH1 0x4 DUP1 CALLDATASIZE SUB DUP2 ADD SWAP1 PUSH2 0x7D SWAP2 SWAP1 PUSH2 0x421 JUMP JUMPDEST PUSH2 0x13C JUMP JUMPDEST PUSH1 0x40 MLOAD PUSH2 0x8F SWAP2 SWAP1 PUSH2 0x2CC JUMP JUMPDEST PUSH1 0x40 MLOAD DUP1 SWAP2 SUB SWAP1 RETURN JUMPDEST PUSH0 PUSH0 PUSH0 PUSH0 DUP5 PUSH31 0xFFFFFFFFFFFFFFFFFFFFFFFFFFFFFFFFFFFFFFFFFFFFFFFFFFFFFFFFFFFFFF NOT AND PUSH31 0xFFFFFFFFFFFFFFFFFFFFFFFFFFFFFFFFFFFFFFFFFFFFFFFFFFFFFFFFFFFFFF NOT AND DUP2 MSTORE PUSH1 0x20 ADD SWAP1 DUP2 MSTORE PUSH1 0x20 ADD PUSH0 KECCAK256 SLOAD SWAP1 POP PUSH0 DUP2 SUB PUSH2 0x133 JUMPI PUSH1 0x40 MLOAD PUSH32 0x8C379A000000000000000000000000000000000000000000000000000000000 DUP2 MSTORE PUSH1 0x4 ADD PUSH2 0x12A SWAP1 PUSH2 0x4C2 JUMP JUMPDEST PUSH1 0x40 MLOAD DUP1 SWAP2 SUB SWAP1 REVERT JUMPDEST DUP1 SWAP2 POP POP SWAP2 SWAP1 POP JUMP JUMPDEST PUSH0 PUSH0 DUP3 SWAP1 POP PUSH0 DUP2 MLOAD SWAP1 POP PUSH0 DUP2 SUB PUSH2 0x157 JUMPI PUSH0 SWAP3 POP POP POP PUSH2 0x21E JUMP JUMPDEST PUSH0 PUSH0 SWAP1 POP PUSH0 PUSH0 SWAP1 POP JUMPDEST DUP3 DUP2 LT ISZERO PUSH2 0x216 JUMPI PUSH0 PUSH2 0x18F DUP6 DUP4 DUP2 MLOAD DUP2 LT PUSH2 0x17F JUMPI PUSH2 0x17E PUSH2 0x4E0 JUMP JUMPDEST JUMPDEST PUSH1 0x20 ADD ADD MLOAD PUSH1 0xF8 SHR PUSH1 0xF8 SHL PUSH2 0x98 JUMP JUMPDEST SWAP1 POP PUSH1 0x1 DUP5 PUSH2 0x19E SWAP2 SWAP1 PUSH2 0x53A JUMP JUMPDEST DUP3 LT ISZERO PUSH2 0x1F9 JUMPI PUSH0 PUSH2 0x1D8 DUP7 PUSH1 0x1 DUP6 PUSH2 0x1B7 SWAP2 SWAP1 PUSH2 0x56D JUMP JUMPDEST DUP2 MLOAD DUP2 LT PUSH2 0x1C8 JUMPI PUSH2 0x1C7 PUSH2 0x4E0 JUMP JUMPDEST JUMPDEST PUSH1 0x20 ADD ADD MLOAD PUSH1 0xF8 SHR PUSH1 0xF8 SHL PUSH2 0x98 JUMP JUMPDEST SWAP1 POP DUP1 DUP3 LT ISZERO PUSH2 0x1F7 JUMPI DUP2 DUP5 PUSH2 0x1EE SWAP2 SWAP1 PUSH2 0x53A JUMP JUMPDEST SWAP4 POP POP POP PUSH2 0x209 JUMP JUMPDEST POP JUMPDEST DUP1 DUP4 PUSH2 0x205 SWAP2 SWAP1 PUSH2 0x56D JUMP JUMPDEST SWAP3 POP POP JUMPDEST DUP1 DUP1 PUSH1 0x1 ADD SWAP2 POP POP PUSH2 0x160 JUMP JUMPDEST POP DUP1 SWAP4 POP POP POP POP JUMPDEST SWAP2 SWAP1 POP JUMP JUMPDEST PUSH0 PUSH1 0x40 MLOAD SWAP1 POP SWAP1 JUMP JUMPDEST PUSH0 PUSH0 REVERT JUMPDEST PUSH0 PUSH0 REVERT JUMPDEST PUSH0 PUSH32 0xFF00000000000000000000000000000000000000000000000000000000000000 DUP3 AND SWAP1 POP SWAP2 SWAP1 POP JUMP JUMPDEST PUSH2 0x268 DUP2 PUSH2 0x234 JUMP JUMPDEST DUP2 EQ PUSH2 0x272 JUMPI PUSH0 PUSH0 REVERT JUMPDEST POP JUMP JUMPDEST PUSH0 DUP2 CALLDATALOAD SWAP1 POP PUSH2 0x283 DUP2 PUSH2 0x25F JUMP JUMPDEST SWAP3 SWAP2 POP POP JUMP JUMPDEST PUSH0 PUSH1 0x20 DUP3 DUP5 SUB SLT ISZERO PUSH2 0x29E JUMPI PUSH2 0x29D PUSH2 0x22C JUMP JUMPDEST JUMPDEST PUSH0 PUSH2 0x2AB DUP5 DUP3 DUP6 ADD PUSH2 0x275 JUMP JUMPDEST SWAP2 POP POP SWAP3 SWAP2 POP POP JUMP JUMPDEST PUSH0 DUP2 SWAP1 POP SWAP2 SWAP1 POP JUMP JUMPDEST PUSH2 0x2C6 DUP2 PUSH2 0x2B4 JUMP JUMPDEST DUP3 MSTORE POP POP JUMP JUMPDEST PUSH0 PUSH1 0x20 DUP3 ADD SWAP1 POP PUSH2 0x2DF PUSH0 DUP4 ADD DUP5 PUSH2 0x2BD JUMP JUMPDEST SWAP3 SWAP2 POP POP JUMP JUMPDEST PUSH0 PUSH0 REVERT JUMPDEST PUSH0 PUSH0 REVERT JUMPDEST PUSH0 PUSH1 0x1F NOT PUSH1 0x1F DUP4 ADD AND SWAP1 POP SWAP2 SWAP1 POP JUMP JUMPDEST PUSH32 0x4E487B7100000000000000000000000000000000000000000000000000000000 PUSH0 MSTORE PUSH1 0x41 PUSH1 0x4 MSTORE PUSH1 0x24 PUSH0 REVERT JUMPDEST PUSH2 0x333 DUP3 PUSH2 0x2ED JUMP JUMPDEST DUP2 ADD DUP2 DUP2 LT PUSH8 0xFFFFFFFFFFFFFFFF DUP3 GT OR ISZERO PUSH2 0x352 JUMPI PUSH2 0x351 PUSH2 0x2FD JUMP JUMPDEST JUMPDEST DUP1 PUSH1 0x40 MSTORE POP POP POP JUMP JUMPDEST PUSH0 PUSH2 0x364 PUSH2 0x223 JUMP JUMPDEST SWAP1 POP PUSH2 0x370 DUP3 DUP3 PUSH2 0x32A JUMP JUMPDEST SWAP2 SWAP1 POP JUMP JUMPDEST PUSH0 PUSH8 0xFFFFFFFFFFFFFFFF DUP3 GT ISZERO PUSH2 0x38F JUMPI PUSH2 0x38E PUSH2 0x2FD JUMP JUMPDEST JUMPDEST PUSH2 0x398 DUP3 PUSH2 0x2ED JUMP JUMPDEST SWAP1 POP PUSH1 0x20 DUP2 ADD SWAP1 POP SWAP2 SWAP1 POP JUMP JUMPDEST DUP3 DUP2 DUP4 CALLDATACOPY PUSH0 DUP4 DUP4 ADD MSTORE POP POP POP JUMP JUMPDEST PUSH0 PUSH2 0x3C5 PUSH2 0x3C0 DUP5 PUSH2 0x375 JUMP JUMPDEST PUSH2 0x35B JUMP JUMPDEST SWAP1 POP DUP3 DUP2 MSTORE PUSH1 0x20 DUP2 ADD DUP5 DUP5 DUP5 ADD GT ISZERO PUSH2 0x3E1 JUMPI PUSH2 0x3E0 PUSH2 0x2E9 JUMP JUMPDEST JUMPDEST PUSH2 0x3EC DUP5 DUP3 DUP6 PUSH2 0x3A5 JUMP JUMPDEST POP SWAP4 SWAP3 POP POP POP JUMP JUMPDEST PUSH0 DUP3 PUSH1 0x1F DUP4 ADD SLT PUSH2 0x408 JUMPI PUSH2 0x407 PUSH2 0x2E5 JUMP JUMPDEST JUMPDEST DUP2 CALLDATALOAD PUSH2 0x418 DUP5 DUP3 PUSH1 0x20 DUP7 ADD PUSH2 0x3B3 JUMP JUMPDEST SWAP2 POP POP SWAP3 SWAP2 POP POP JUMP JUMPDEST PUSH0 PUSH1 0x20 DUP3 DUP5 SUB SLT ISZERO PUSH2 0x436 JUMPI PUSH2 0x435 PUSH2 0x22C JUMP JUMPDEST JUMPDEST PUSH0 DUP3 ADD CALLDATALOAD PUSH8 0xFFFFFFFFFFFFFFFF DUP2 GT ISZERO PUSH2 0x453 JUMPI PUSH2 0x452 PUSH2 0x230 JUMP JUMPDEST JUMPDEST PUSH2 0x45F DUP5 DUP3 DUP6 ADD PUSH2 0x3F4 JUMP JUMPDEST SWAP2 POP POP SWAP3 SWAP2 POP POP JUMP JUMPDEST PUSH0 DUP3 DUP3 MSTORE PUSH1 0x20 DUP3 ADD SWAP1 POP SWAP3 SWAP2 POP POP JUMP JUMPDEST PUSH32 0x496E76616C696420526F6D616E206E756D6572616C2063686172616374657200 PUSH0 DUP3 ADD MSTORE POP JUMP JUMPDEST PUSH0 PUSH2 0x4AC PUSH1 0x1F DUP4 PUSH2 0x468 JUMP JUMPDEST SWAP2 POP PUSH2 0x4B7 DUP3 PUSH2 0x478 JUMP JUMPDEST PUSH1 0x20 DUP3 ADD SWAP1 POP SWAP2 SWAP1 POP JUMP JUMPDEST PUSH0 PUSH1 0x20 DUP3 ADD SWAP1 POP DUP2 DUP2 SUB PUSH0 DUP4 ADD MSTORE PUSH2 0x4D9 DUP2 PUSH2 0x4A0 JUMP JUMPDEST SWAP1 POP SWAP2 SWAP1 POP JUMP JUMPDEST PUSH32 0x4E487B7100000000000000000000000000000000000000000000000000000000 PUSH0 MSTORE PUSH1 0x32 PUSH1 0x4 MSTORE PUSH1 0x24 PUSH0 REVERT JUMPDEST PUSH32 0x4E487B7100000000000000000000000000000000000000000000000000000000 PUSH0 MSTORE PUSH1 0x11 PUSH1 0x4 MSTORE PUSH1 0x24 PUSH0 REVERT JUMPDEST PUSH0 PUSH2 0x544 DUP3 PUSH2 0x2B4 JUMP JUMPDEST SWAP2 POP PUSH2 0x54F DUP4 PUSH2 0x2B4 JUMP JUMPDEST SWAP3 POP DUP3 DUP3 SUB SWAP1 POP DUP2 DUP2 GT ISZERO PUSH2 0x567 JUMPI PUSH2 0x566 PUSH2 0x50D JUMP JUMPDEST JUMPDEST SWAP3 SWAP2 POP POP JUMP JUMPDEST PUSH0 PUSH2 0x577 DUP3 PUSH2 0x2B4 JUMP JUMPDEST SWAP2 POP PUSH2 0x582 DUP4 PUSH2 0x2B4 JUMP JUMPDEST SWAP3 POP DUP3 DUP3 ADD SWAP1 POP DUP1 DUP3 GT ISZERO PUSH2 0x59A JUMPI PUSH2 0x599 PUSH2 0x50D JUMP JUMPDEST JUMPDEST SWAP3 SWAP2 POP POP JUMP INVALID LOG2 PUSH5 0x6970667358 0x22 SLT KECCAK256 EXTCODESIZE 0x22 DUP7 DUP5 CREATE2 0xD5 0x4F 0xCD CHAINID CALLVALUE SWAP14 EXTCODESIZE 0xDC 0x28 0xC1 PUSH27 0x1CBDE8A28EE7E92306463DCCE80BA8EE64736F6C634300081E0033 "
		},
		"gasEstimates": {
			"creation": {
				"codeDepositCost": "298800",
				"executionCost": "155721",
				"totalCost": "454521"
			},
			"external": {
				"getValue(bytes1)": "2894",
				"romanToInt(string)": "infinite"
			}
		},
		"methodIdentifiers": {
			"getValue(bytes1)": "2f0e44d8",
			"romanToInt(string)": "cb159dfe"
		}
	},
	"abi": [
		{
			"inputs": [],
			"stateMutability": "nonpayable",
			"type": "constructor"
		},
		{
			"inputs": [
				{
					"internalType": "bytes1",
					"name": "c",
					"type": "bytes1"
				}
			],
			"name": "getValue",
			"outputs": [
				{
					"internalType": "uint256",
					"name": "",
					"type": "uint256"
				}
			],
			"stateMutability": "view",
			"type": "function"
		},
		{
			"inputs": [
				{
					"internalType": "string",
					"name": "roman",
					"type": "string"
				}
			],
			"name": "romanToInt",
			"outputs": [
				{
					"internalType": "uint256",
					"name": "",
					"type": "uint256"
				}
			],
			"stateMutability": "view",
			"type": "function"
		}
	]
}